:020000040800F2
:100000003004002095040008F5040008F5040008F9
:10001000F5040008F5040008F504000800000000DD
:10002000000000000000000000000000F5040008CF
:10003000F504000800000000F5040008F5040008BD
:10004000F5040008F5040008F5040008F5040008AC
:10005000F5040008F5040008F5040008F50400089C
:10006000F5040008F5040008F5040008F50400088C
:10007000F5040008F5040008F5040008F50400087C
:10008000F5040008F5040008F5040008F50400086C
:10009000F5040008F5040008F5040008F50400085C
:1000A000F5040008F5040008F5040008F50400084C
:1000B000F5040008F5040008F5040008F50400083C
:1000C000F5040008F5040008F5040008F50400082C
:1000D000F5040008F5040008F5040008F50400081C
:1000E000F5040008F5040008F5040008F50400080C
:1000F000F5040008F5040008F5040008F5040008FC
:10010000F5040008F5040008F5040008F5040008EB
:10011000F5040008F5040008F5040008F5040008DB
:10012000F5040008F5040008F5040008F5040008CB
:100130005FF808F180B582B000AF0121042000F023
:100140006BFC3B1D184600F094FA4FF40073BB8023
:100150000323BB711023FB713B1D1946294800F096
:10016000CCF93B1D184600F084FA4FF48063BB8045
:100170000323BB712823FB713B1D1946214800F066
:10018000BCF93B1D184600F074FA4FF40063BB80C5
:100190000323BB711023FB713B1D1946194800F066
:1001A000ACF93B1D184600F064FA4FF48053BB8055
:1001B0000323BB711023FB713B1D1946114800F04E
:1001C0009CF93B1D184600F054FA0823BB8003231A
:1001D000BB711023FB713B1D19460A4800F08DF9D5
:1001E0004FF40071074800F070FA4FF48051054851
:1001F00000F079FA0821034800F075FA00BF0837CB
:10020000BD4680BD0008014080B500AF0821084808
:1002100000F042FA0346002B04D10821044800F004
:1002200054FA03E00821024800F05DFA00BF80BDE7
:100230000008014080B584B000AF0346FB710B4657
:10024000BB7113467B7108211C4800F04CFA4FF437
:1002500080511A4800F047FA4FF40071174800F037
:1002600042FABB79013BFB6018E0FA79FB6842FA7D
:1002700003F303F00103002B04D04FF480510F4827
:1002800000F023FAFFF7C0FF4FF480510B4800F055
:100290002AFAFFF7B9FFFB68013BFB60FB68B3F18B
:1002A000FF3FE2D17B79002B04D14FF4007103486A
:1002B00000F019FA00BF1037BD4680BD00080140AC
:1002C00080B584B000AFF860B9601346FB710122BD
:1002D00008210320FFF7AEFF4FF40071034800F040
:1002E000F4F900BF1037BD4680BD00BF00080140D3
:1002F00080B584B000AFF860B9601346FB7101228D
:1003000008210220FFF796FF4FF40071034800F028
:10031000DCF900BF1037BD4680BD00BF00080140BA
:1003200080B500AF154A154B1B6843F001031360FD
:100330001249124B5A68124B13404B600F4A0F4B35
:100340001B6823F0847323F4803313600B4A0B4B38
:100350001B6823F480231360084A084B5B6823F46E
:10036000FE035360054B4FF41F029A6000F00CF837
:10037000044B4FF000629A6000BF80BD0010024045
:100380000000FFF800ED00E080B500AF00F002F8DB
:1003900000BF80BD80B483B000AF00237B6000232A
:1003A0003B603A4A394B1B6843F480331360374B48
:1003B0001B6803F400333B607B6801337B603B6860
:1003C000002B03D17B68B3F5A06FF0D12F4B1B68D6
:1003D00003F40033002B02D001233B6001E0002333
:1003E0003B603B68012B4BD1294A294B1B6843F0EA
:1003F00010031360264A264B1B6823F00303136087
:10040000234A234B1B6843F0020313601F4A1F4B10
:100410005B6853601D4A1D4B5B6853601B4A1B4B56
:100420005B6843F480635360184A184B5B6823F49D
:100430007C135360154A154B5B6843F4E813536013
:10044000124A124B1B6843F08073136000BF0F4BBE
:100450001B6803F00073002BF9D00C4A0B4B5B6850
:1004600023F003035360094A084B5B6843F002031F
:10047000536000BF054B5B6803F00C03082BF9D1F8
:1004800000BF0C37BD4680BC704700BF0010024063
:100490000020024080B582B000AF114B7B60114B51
:1004A0003B6007E03B681A1D3A607A68111D79606D
:1004B00012681A603B680C4A9342F3D30B480C490C
:1004C0004FF000028842B8BF40F8042BFADBFFF778
:1004D00027FF00F0B5F900BF0837BD4680BD00BF5B
:1004E000E60C00080000002014000020140000208A
:1004F0003000002080B400AFFEE780B489B000AFC8
:10050000786039600023FB6100233B610023BB61FD
:100510000023FB6000237B610023BB603B68DB782A
:1005200003F00F03FB613B68DB7803F01003002B43
:1005300005D03B689B781A46FB691343FB613B6817
:100540001B88DBB2002B44D07B681B687B610023D7
:10055000BB6138E00122BB6902FA03F3FB603B6830
:100560001B881A46FB6813403B613A69FB689A4254
:1005700026D1BB699B00FB600F22FB6802FA03F3E4
:10058000BB60BB68DB437A6913407B61FA69FB6837
:1005900002FA03F37A6913437B613B68DB78282B0B
:1005A00005D10122BB699A407B685A6108E03B682B
:1005B000DB78482B04D10122BB699A407B681A6121
:1005C000BB690133BB61BB69072BC3D97B687A69FF
:1005D0001A603B681B88FF2B46D97B685B687B6190
:1005E0000023BB613AE0BB690833012202FA03F33E
:1005F000FB603B681B881A46FB6813403B613A6905
:10060000FB689A4227D1BB699B00FB600F22FB6805
:1006100002FA03F3BB60BB68DB437A6913407B617A
:10062000FA69FB6802FA03F37A6913437B613B685A
:10063000DB78282B05D1BB69083301229A407B68FF
:100640005A613B68DB78482B05D1BB69083301222E
:100650009A407B681A61BB690133BB61BB69072B98
:10066000C1D97B687A695A6000BF2437BD4680BC17
:10067000704780B483B000AF78607B684FF6FF723C
:100680001A807B6802229A707B680422DA7000BFAD
:100690000C37BD4680BC704780B485B000AF786031
:1006A0000B467B800023FB737B689A687B88134032
:1006B000002B02D00123FB7301E00023FB73FB7BC3
:1006C00018461437BD4680BC704780B483B000AF75
:1006D00078600B467B807A887B681A6100BF0C3794
:1006E000BD4680BC704780B483B000AF78600B46D5
:1006F0007B807A887B685A6100BF0C37BD4680BC1E
:10070000704780B483B000AF00237B6002E07B6859
:1007100001337B607B6842F20F729342F7DD00BFCA
:100720000C37BD4680BC704780B584B000AFF86020
:10073000B9607A6010E0BB685A1CBA601B789BB243
:100740001946F86800F099FA00BF4021F86800F0F7
:10075000A5FA0346002BF8D07B685A1E7A60002B5E
:10076000E9D100BF1037BD4680BD000080B582B022
:1007700000AF0121102000F04FF901214FF40020BB
:1007800000F068F92948FFF774FF284B4FF48062A6
:100790001A80264B1822DA70244B03229A702349C0
:1007A0002348FFF7AAFE2148FFF763FF1F4B4FF4D2
:1007B00000621A801D4B0422DA701C4B03229A70CF
:1007C0001A491B48FFF799FE1A4800F01BFA194B0B
:1007D0004FF416521A60174B00229A80154B0022D4
:1007E000DA80144B00221A81124B00229A81114B9D
:1007F0000C225A810F49104800F04AF901210E4895
:1008000000F01CFA00237B6002E07B6801337B6010
:100810007B68B3F57A7FF8DB112208490648FFF7B9
:1008200083FF00BF0837BD4680BD00BF1800002011
:10083000001001401C000020004C0040D40C0008B7
:1008400080B584B000AF0123FB600023BB600323AD
:100850007B60FFF78BFFFFF76DFCFFF752FF002275
:1008600008210620FFF7E6FCFFF74BFF00220821D6
:10087000C720FFF7DFFCFFF744FF03227968F86821
:10088000FFF736FDFFF73DFF0322B968F868FFF771
:1008900017FDBB689BB21946064800F0EEF9FFF75A
:1008A00030FFFFF72EFFFFF72CFFFFF72AFFFFF7C0
:1008B000ABFCF4E7004C004080B487B000AF786038
:1008C00000237B6100233B610023FB600023BB60AE
:1008D0004C4B5B6803F00C037B617B69042B07D0F6
:1008E000082B09D0002B33D17B68474A1A6033E0CC
:1008F0007B68454A1A602FE0424B5B6803F4701333
:100900003B61404B5B6803F48033FB603B699B0CAD
:1009100002333B61FB68002B06D13B693B4A02FB7B
:1009200003F27B681A6017E0364B5B6803F4003310
:10093000002B06D03B69354A02FB03F27B681A6044
:100940000AE03B69304A02FB03F27B681A6003E06D
:100950007B682D4A1A6000BF2A4B5B6803F0F003E6
:100960007B617B691B097B61294A7B6913441B7886
:10097000DBB2BB607B681A68BB68DA407B685A6090
:10098000204B5B6803F4E0637B617B691B0A7B613E
:100990001F4A7B6913441B78DBB2BB607B685A68D3
:1009A000BB68DA407B689A60164B5B6803F460535F
:1009B0007B617B69DB0A7B61154A7B6913441B7889
:1009C000DBB2BB607B685A68BB68DA407B68DA6080
:1009D0000C4B5B6803F440437B617B699B0B7B6141
:1009E0000C4A7B6913441B78DBB2BB607B68DA6816
:1009F000BB68B2FBF3F27B681A6100BF1C37BD46CF
:100A000080BC70470010024000127A0000093D00CF
:100A1000000000201000002080B483B000AF786098
:100A20000B46FB70FB78002B06D00949084B9A69EE
:100A30007B6813438B6106E00549054B9A697B6827
:100A4000DB4313408B6100BF0C37BD4680BC704751
:100A50000010024080B483B000AF78600B46FB709A
:100A6000FB78002B06D00949084BDA697B681343F1
:100A7000CB6106E00549054BDA697B68DB4313402F
:100A8000CB6100BF0C37BD4680BC704700100240F0
:100A900080B58CB000AF786039600023FB62002322
:100AA000BB6200237B6200233B620023FB617B6807
:100AB000FB617B681B8A9BB2FB62FA6A4CF6FF7390
:100AC0001340FB623B68DB881A46FB6A1343FB62F8
:100AD000FB6A9AB27B681A827B689B899BB2FB6235
:100AE000FA6A4EF6F3131340FB623B689A883B6840
:100AF0001B8913439AB23B685B8913439BB21A4626
:100B0000FB6A1343FB62FB6A9AB27B689A817B683B
:100B10009B8A9BB2FB62FA6A4FF6FF431340FB626B
:100B20003B689B891A46FB6A1343FB62FB6A9AB2D5
:100B30007B689A8207F108031846FFF7BDFEFB6940
:100B40002E4A934202D17B69BB6201E03B69BB62E2
:100B50007B689B899BB21BB2002B0CDABA6A1346E6
:100B60009B0013449A001A443B681B685B00B2FB6D
:100B7000F3F37B620BE0BA6A13469B0013449A00BE
:100B80001A443B681B689B00B2FBF3F37B627B6AF1
:100B90001B4AA2FB03235B091B01FB62FB6A1B09C7
:100BA000642202FB03F37A6AD31A3B627B689B8957
:100BB0009BB21BB2002B0CDA3B6ADB003233104ACB
:100BC000A2FB03235B0903F00703FA6A1343FB62EA
:100BD0000BE03B6A1B013233094AA2FB03235B098A
:100BE00003F00F03FA6A1343FB62FB6A9AB27B6855
:100BF0001A8100BF3037BD4680BD00BF00380140BC
:100C00001F85EB5180B483B000AF78607B684FF4F0
:100C100016521A607B6800229A807B680022DA8074
:100C20007B6800221A817B680C225A817B68002233
:100C30009A8100BF0C37BD4680BC704780B483B03A
:100C400000AF78600B46FB70FB78002B08D07B6808
:100C50009B899BB243F400539AB27B689A8107E068
:100C60007B689B899BB223F400539AB27B689A817C
:100C700000BF0C37BD4680BC704780B483B000AF66
:100C800078600B467B807B88C3F308039AB27B684D
:100C90009A8000BF0C37BD4680BC704780B485B0D9
:100CA00000AF78600B467B800023FB737B681B885A
:100CB0009AB27B8813409BB2002B02D00123FB73B6
:100CC00001E00023FB73FB7B18461437BD4680BC54
:100CD000704700002075617274345F737065616BDA
:060CE000696E675F5F0012
:100CE60000000000010203040102030406070809CC
:040CF60002040608E6
:0400000508000000EF
:00000001FF
